{
  "contractName": "HelloWorld",
  "abi": [
    {
      "constant": true,
      "inputs": [],
      "name": "SayHello",
      "outputs": [
        {
          "name": "",
          "type": "string"
        }
      ],
      "payable": false,
      "stateMutability": "pure",
      "type": "function"
    }
  ],
  "bytecode": "0x6060604052341561000f57600080fd5b6101578061001e6000396000f300606060405260043610610041576000357c0100000000000000000000000000000000000000000000000000000000900463ffffffff1680633acb315014610046575b600080fd5b341561005157600080fd5b6100596100d4565b6040518080602001828103825283818151815260200191508051906020019080838360005b8381101561009957808201518184015260208101905061007e565b50505050905090810190601f1680156100c65780820380516001836020036101000a031916815260200191505b509250505060405180910390f35b6100dc610117565b6040805190810160405280600b81526020017f48656c6c6f20576f726c64000000000000000000000000000000000000000000815250905090565b6020604051908101604052806000815250905600a165627a7a72305820789247311104c7cee7e3dd5c1b2ce5d7737ce804806657ff7d6b717b1aeb418f0029",
  "source": "pragma solidity ^0.4.4;\r\ncontract HelloWorld {\r\n    function SayHello() public pure returns (string){\r\n        return (\"Hello World\");\r\n    }\r\n}",
  "sourcePath": "c:\\Users\\Project\\Ethereum\\demo\\helloworld\\contracts\\helloworld.sol",
  "compiler": {
    "name": "solc",
    "version": "0.4.18+commit.9cf6e910.Emscripten.clang"
  },
  "schemaVersion": "1.0.1",
  "updatedAt": "2017-11-28T10:12:30.265Z"
}